8=FIX.4.4|9=84|35=A|34=1|49=FIX_SERVER|52=20240827-02:20:38.780|56=CLIENTE_EXCEL|98=0|108=30|141=Y|10=039|8=FIX.4.4|9=172|35=8|34=2|49=FIX_SERVER|52=20240827-02:20:43.030|56=CLIENTE_EXCEL|6=129.84|11=$A$2_0826232042913_0000000001|14=10000|17=54321|37=6006246677|39=0|54=1|55=NTFN25|150=0|151=0|10=034|8=FIX.4.4|9=66|35=5|34=3|49=FIX_SERVER|52=20240827-02:20:57.023|56=CLIENTE_EXCEL|10=206|