8=FIX.4.4|9=84|35=A|34=1|49=FIX_SERVER|52=20240627-00:35:49.442|56=CLIENTE_EXCEL|98=0|108=30|141=Y|10=038|8=FIX.4.4|9=170|35=8|34=2|49=FIX_SERVER|52=20240627-00:36:01.533|56=CLIENTE_EXCEL|6=9.84|11=$A$2_0626213601514_0000000001|14=10000|17=54321|37=1346195000|39=0|54=1|55=NTFN25|150=0|151=0|10=174|8=FIX.4.4|9=66|35=0|34=3|49=FIX_SERVER|52=20240627-00:36:32.151|56=CLIENTE_EXCEL|10=199|8=FIX.4.4|9=66|35=0|34=4|49=FIX_SERVER|52=20240627-00:37:02.142|56=CLIENTE_EXCEL|10=198|8=FIX.4.4|9=66|35=0|34=5|49=FIX_SERVER|52=20240627-00:37:32.142|56=CLIENTE_EXCEL|10=202|8=FIX.4.4|9=75|35=1|34=6|49=FIX_SERVER|52=20240627-00:37:49.147|56=CLIENTE_EXCEL|112=TEST|10=235|8=FIX.4.4|9=75|35=0|34=7|49=FIX_SERVER|52=20240627-00:37:54.515|56=CLIENTE_EXCEL|112=TEST|10=230|8=FIX.4.4|9=66|35=0|34=8|49=FIX_SERVER|52=20240627-00:38:25.150|56=CLIENTE_EXCEL|10=207|8=FIX.4.4|9=75|35=1|34=9|49=FIX_SERVER|52=20240627-00:38:40.152|56=CLIENTE_EXCEL|112=TEST|10=226|