8=FIX.4.4|9=84|35=A|34=1|49=CLIENTE_EXCEL|52=20240626-20:04:21.509|56=FIX_SERVER|98=0|108=30|141=Y|10=029|
8=FIX.4.4|9=84|35=A|34=1|49=FIX_SERVER|52=20240626-20:04:21.628|56=CLIENTE_EXCEL|98=0|108=30|141=Y|10=031|
8=FIX.4.4|9=66|35=0|34=2|49=CLIENTE_EXCEL|52=20240626-20:04:52.130|56=FIX_SERVER|10=193|
8=FIX.4.4|9=66|35=0|34=2|49=FIX_SERVER|52=20240626-20:04:52.133|56=CLIENTE_EXCEL|10=196|
8=FIX.4.4|9=161|35=D|34=3|49=CLIENTE_EXCEL|52=20240626-20:04:58.216|56=FIX_SERVER|11=$A$3_0626170458118_0000000001|38=10000|40=2|44=9.84|54=1|55=NTFN25|60=20240626-17:04:58.210|10=130|
8=FIX.4.4|9=66|35=0|34=3|49=FIX_SERVER|52=20240626-20:05:22.227|56=CLIENTE_EXCEL|10=199|
8=FIX.4.4|9=66|35=0|34=4|49=CLIENTE_EXCEL|52=20240626-20:05:28.284|56=FIX_SERVER|10=209|
8=FIX.4.4|9=66|35=0|34=4|49=FIX_SERVER|52=20240626-20:05:52.226|56=CLIENTE_EXCEL|10=202|
8=FIX.4.4|9=66|35=0|34=5|49=CLIENTE_EXCEL|52=20240626-20:05:58.289|56=FIX_SERVER|10=218|
8=FIX.4.4|9=84|35=A|34=1|49=CLIENTE_EXCEL|52=20240626-22:11:19.352|56=FIX_SERVER|98=0|108=30|141=Y|10=032|
8=FIX.4.4|9=84|35=A|34=1|49=FIX_SERVER|52=20240626-22:11:19.494|56=CLIENTE_EXCEL|98=0|108=30|141=Y|10=039|
8=FIX.4.4|9=161|35=D|34=2|49=CLIENTE_EXCEL|52=20240626-22:11:39.281|56=FIX_SERVER|11=$A$2_0626191139266_0000000001|38=10000|40=2|44=9.84|54=1|55=NTFN25|60=20240626-19:11:39.273|10=140|
8=FIX.4.4|9=165|35=8|34=2|49=FIX_SERVER|52=20240626-22:11:39.386|56=CLIENTE_EXCEL|6=9.84|11=$A$2_0626191139266_0000000001|14=10000|17=54321|37=12345|39=2|54=1|55=NTFN25|150=2|151=0|10=212|
8=FIX.4.4|9=66|35=0|34=3|49=CLIENTE_EXCEL|52=20240626-22:12:10.014|56=FIX_SERVER|10=190|
8=FIX.4.4|9=66|35=0|34=3|49=FIX_SERVER|52=20240626-22:12:10.016|56=CLIENTE_EXCEL|10=192|
8=FIX.4.4|9=66|35=0|34=4|49=FIX_SERVER|52=20240626-22:12:40.206|56=CLIENTE_EXCEL|10=197|
8=FIX.4.4|9=66|35=0|34=4|49=CLIENTE_EXCEL|52=20240626-22:12:40.227|56=FIX_SERVER|10=200|
8=FIX.4.4|9=66|35=0|34=5|49=FIX_SERVER|52=20240626-22:13:10.219|56=CLIENTE_EXCEL|10=200|
8=FIX.4.4|9=66|35=0|34=5|49=CLIENTE_EXCEL|52=20240626-22:13:10.245|56=FIX_SERVER|10=199|
8=FIX.4.4|9=187|35=D|34=6|49=CLIENTE_EXCEL|52=20240626-22:13:20.105|56=FIX_SERVER|11=No formula in the active cell._0626191320105_0000000001|38=10000|40=2|44=9.84|54=1|55=NTFN25|60=20240626-19:13:20.105|10=103|
8=FIX.4.4|9=191|35=8|34=6|49=FIX_SERVER|52=20240626-22:13:20.111|56=CLIENTE_EXCEL|6=9.84|11=No formula in the active cell._0626191320105_0000000001|14=10000|17=54321|37=12345|39=2|54=1|55=NTFN25|150=2|151=0|10=171|
8=FIX.4.4|9=66|35=0|34=7|49=FIX_SERVER|52=20240626-22:13:50.220|56=CLIENTE_EXCEL|10=198|
8=FIX.4.4|9=66|35=0|34=7|49=CLIENTE_EXCEL|52=20240626-22:13:50.236|56=FIX_SERVER|10=205|
8=FIX.4.4|9=66|35=0|34=8|49=FIX_SERVER|52=20240626-22:14:20.228|56=CLIENTE_EXCEL|10=205|
8=FIX.4.4|9=66|35=0|34=8|49=CLIENTE_EXCEL|52=20240626-22:14:20.259|56=FIX_SERVER|10=209|
8=FIX.4.4|9=66|35=0|34=9|49=FIX_SERVER|52=20240626-22:14:50.222|56=CLIENTE_EXCEL|10=203|
8=FIX.4.4|9=66|35=0|34=9|49=CLIENTE_EXCEL|52=20240626-22:14:51.249|56=FIX_SERVER|10=213|
8=FIX.4.4|9=67|35=0|34=10|49=FIX_SERVER|52=20240626-22:15:20.225|56=CLIENTE_EXCEL|10=245|
8=FIX.4.4|9=67|35=0|34=10|49=CLIENTE_EXCEL|52=20240626-22:15:21.251|56=FIX_SERVER|10=245|
8=FIX.4.4|9=67|35=0|34=11|49=FIX_SERVER|52=20240626-22:15:50.231|56=CLIENTE_EXCEL|10=246|
8=FIX.4.4|9=67|35=0|34=11|49=CLIENTE_EXCEL|52=20240626-22:15:51.278|56=FIX_SERVER|10=002|
8=FIX.4.4|9=67|35=0|34=12|49=FIX_SERVER|52=20240626-22:16:21.221|56=CLIENTE_EXCEL|10=245|
8=FIX.4.4|9=67|35=0|34=12|49=CLIENTE_EXCEL|52=20240626-22:16:22.248|56=FIX_SERVER|10=255|
8=FIX.4.4|9=67|35=0|34=13|49=FIX_SERVER|52=20240626-22:16:51.225|56=CLIENTE_EXCEL|10=253|
8=FIX.4.4|9=67|35=0|34=13|49=CLIENTE_EXCEL|52=20240626-22:16:53.257|56=FIX_SERVER|10=004|
8=FIX.4.4|9=67|35=0|34=14|49=FIX_SERVER|52=20240626-22:17:21.231|56=CLIENTE_EXCEL|10=249|
8=FIX.4.4|9=67|35=0|34=14|49=CLIENTE_EXCEL|52=20240626-22:17:23.271|56=FIX_SERVER|10=255|
8=FIX.4.4|9=84|35=A|34=1|49=CLIENTE_EXCEL|52=20240626-22:18:49.056|56=FIX_SERVER|98=0|108=30|141=Y|10=043|
8=FIX.4.4|9=84|35=A|34=1|49=FIX_SERVER|52=20240626-22:18:49.108|56=CLIENTE_EXCEL|98=0|108=30|141=Y|10=041|
8=FIX.4.4|9=161|35=D|34=2|49=CLIENTE_EXCEL|52=20240626-22:19:02.686|56=FIX_SERVER|11=$A$2_0626191902678_0000000001|38=10000|40=2|44=9.84|54=1|55=NTFN25|60=20240626-19:19:02.682|10=154|
8=FIX.4.4|9=165|35=8|34=2|49=FIX_SERVER|52=20240626-22:19:02.690|56=CLIENTE_EXCEL|6=9.84|11=$A$2_0626191902678_0000000001|14=10000|17=54321|37=12345|39=2|54=1|55=NTFN25|150=2|151=0|10=213|
8=FIX.4.4|9=66|35=0|34=3|49=CLIENTE_EXCEL|52=20240626-22:19:33.042|56=FIX_SERVER|10=203|
8=FIX.4.4|9=66|35=0|34=3|49=FIX_SERVER|52=20240626-22:19:33.043|56=CLIENTE_EXCEL|10=204|
8=FIX.4.4|9=66|35=0|34=4|49=FIX_SERVER|52=20240626-22:20:03.238|56=CLIENTE_EXCEL|10=200|
8=FIX.4.4|9=66|35=0|34=4|49=CLIENTE_EXCEL|52=20240626-22:20:03.330|56=FIX_SERVER|10=193|
8=FIX.4.4|9=66|35=0|34=5|49=FIX_SERVER|52=20240626-22:20:33.245|56=CLIENTE_EXCEL|10=202|
8=FIX.4.4|9=66|35=0|34=5|49=CLIENTE_EXCEL|52=20240626-22:20:34.284|56=FIX_SERVER|10=206|
8=FIX.4.4|9=66|35=0|34=6|49=FIX_SERVER|52=20240626-22:21:03.248|56=CLIENTE_EXCEL|10=204|
8=FIX.4.4|9=66|35=0|34=6|49=CLIENTE_EXCEL|52=20240626-22:21:04.310|56=FIX_SERVER|10=195|
8=FIX.4.4|9=66|35=0|34=7|49=FIX_SERVER|52=20240626-22:21:33.242|56=CLIENTE_EXCEL|10=202|
8=FIX.4.4|9=66|35=0|34=7|49=CLIENTE_EXCEL|52=20240626-22:21:35.287|56=FIX_SERVER|10=213|
8=FIX.4.4|9=66|35=0|34=8|49=FIX_SERVER|52=20240626-22:22:03.244|56=CLIENTE_EXCEL|10=203|
8=FIX.4.4|9=66|35=0|34=8|49=CLIENTE_EXCEL|52=20240626-22:22:05.358|56=FIX_SERVER|10=211|
8=FIX.4.4|9=84|35=A|34=1|49=CLIENTE_EXCEL|52=20240626-22:25:46.154|56=FIX_SERVER|98=0|108=30|141=Y|10=037|
8=FIX.4.4|9=84|35=A|34=1|49=FIX_SERVER|52=20240626-22:25:46.287|56=CLIENTE_EXCEL|98=0|108=30|141=Y|10=044|
8=FIX.4.4|9=161|35=D|34=2|49=CLIENTE_EXCEL|52=20240626-22:26:05.293|56=FIX_SERVER|11=$A$2_0626192605278_0000000001|38=10000|40=2|44=9.84|54=1|55=NTFN25|60=20240626-19:26:05.286|10=147|
8=FIX.4.4|9=165|35=8|34=2|49=FIX_SERVER|52=20240626-22:26:05.408|56=CLIENTE_EXCEL|6=9.84|11=$A$2_0626192605278_0000000001|14=10000|17=54321|37=12345|39=0|54=1|55=NTFN25|150=0|151=0|10=204|
8=FIX.4.4|9=66|35=0|34=3|49=CLIENTE_EXCEL|52=20240626-22:26:35.728|56=FIX_SERVER|10=214|
8=FIX.4.4|9=66|35=0|34=3|49=FIX_SERVER|52=20240626-22:26:35.730|56=CLIENTE_EXCEL|10=207|
8=FIX.4.4|9=66|35=0|34=4|49=CLIENTE_EXCEL|52=20240626-22:27:06.056|56=FIX_SERVER|10=208|
8=FIX.4.4|9=66|35=0|34=4|49=FIX_SERVER|52=20240626-22:27:06.057|56=CLIENTE_EXCEL|10=209|
8=FIX.4.4|9=210|35=G|34=5|49=CLIENTE_EXCEL|52=20240626-22:27:34.835|56=FIX_SERVER|11=$A$2_0626192734829_0000000001|38=10000|40=2|41=$A$2_0626192605278_0000000001|44=6.84|48=NTFN25|54=1|55=NTFN25|60=20240626-22:27:34.833|423=2|10=137|
8=FIX.4.4|9=66|35=0|34=5|49=FIX_SERVER|52=20240626-22:27:36.257|56=CLIENTE_EXCEL|10=215|
8=FIX.4.4|9=66|35=0|34=6|49=CLIENTE_EXCEL|52=20240626-22:28:05.528|56=FIX_SERVER|10=214|
8=FIX.4.4|9=66|35=0|34=6|49=FIX_SERVER|52=20240626-22:28:06.249|56=CLIENTE_EXCEL|10=215|
8=FIX.4.4|9=66|35=0|34=7|49=CLIENTE_EXCEL|52=20240626-22:28:35.529|56=FIX_SERVER|10=219|
8=FIX.4.4|9=66|35=0|34=7|49=FIX_SERVER|52=20240626-22:28:36.264|56=CLIENTE_EXCEL|10=216|
8=FIX.4.4|9=84|35=A|34=1|49=CLIENTE_EXCEL|52=20240626-23:00:07.342|56=FIX_SERVER|98=0|108=30|141=Y|10=027|
8=FIX.4.4|9=84|35=A|34=1|49=FIX_SERVER|52=20240626-23:00:07.489|56=CLIENTE_EXCEL|98=0|108=30|141=Y|10=039|
8=FIX.4.4|9=161|35=D|34=2|49=CLIENTE_EXCEL|52=20240626-23:00:20.071|56=FIX_SERVER|11=$A$2_0626200020052_0000000001|38=10000|40=2|44=9.84|54=1|55=NTFN25|60=20240626-20:00:20.061|10=074|
8=FIX.4.4|9=161|35=8|34=2|49=FIX_SERVER|52=20240626-23:00:20.157|56=CLIENTE_EXCEL|6=9.84|11=$A$2_0626200020052_0000000001|14=10000|17=54321|37=5|39=0|54=1|55=NTFN25|150=0|151=0|10=216|
8=FIX.4.4|9=66|35=0|34=3|49=FIX_SERVER|52=20240626-23:00:50.297|56=CLIENTE_EXCEL|10=205|
8=FIX.4.4|9=66|35=0|34=3|49=CLIENTE_EXCEL|52=20240626-23:00:50.387|56=FIX_SERVER|10=205|
8=FIX.4.4|9=66|35=0|34=4|49=FIX_SERVER|52=20240626-23:01:20.297|56=CLIENTE_EXCEL|10=204|
8=FIX.4.4|9=66|35=0|34=4|49=CLIENTE_EXCEL|52=20240626-23:01:21.317|56=FIX_SERVER|10=198|
8=FIX.4.4|9=210|35=G|34=5|49=CLIENTE_EXCEL|52=20240626-23:01:49.309|56=FIX_SERVER|11=$A$2_0626200149306_0000000001|38=10000|40=2|41=$A$2_0626200020052_0000000001|44=5.84|48=NTFN25|54=1|55=NTFN25|60=20240626-23:01:49.308|423=2|10=078|
8=FIX.4.4|9=66|35=0|34=5|49=FIX_SERVER|52=20240626-23:01:50.301|56=CLIENTE_EXCEL|10=194|
8=FIX.4.4|9=66|35=0|34=6|49=CLIENTE_EXCEL|52=20240626-23:02:19.543|56=FIX_SERVER|10=209|
8=FIX.4.4|9=66|35=0|34=6|49=FIX_SERVER|52=20240626-23:02:20.309|56=CLIENTE_EXCEL|10=201|
8=FIX.4.4|9=66|35=5|34=7|49=FIX_SERVER|52=20240626-23:02:33.310|56=CLIENTE_EXCEL|10=203|
8=FIX.4.4|9=66|35=5|34=7|49=CLIENTE_EXCEL|52=20240626-23:02:33.316|56=FIX_SERVER|10=209|
8=FIX.4.4|9=84|35=A|34=1|49=CLIENTE_EXCEL|52=20240626-23:06:26.241|56=FIX_SERVER|98=0|108=30|141=Y|10=032|
8=FIX.4.4|9=84|35=A|34=1|49=FIX_SERVER|52=20240626-23:06:26.365|56=CLIENTE_EXCEL|98=0|108=30|141=Y|10=039|
8=FIX.4.4|9=66|35=0|34=2|49=FIX_SERVER|52=20240626-23:06:56.641|56=CLIENTE_EXCEL|10=209|
8=FIX.4.4|9=66|35=0|34=2|49=CLIENTE_EXCEL|52=20240626-23:06:56.676|56=FIX_SERVER|10=217|
8=FIX.4.4|9=161|35=D|34=3|49=CLIENTE_EXCEL|52=20240626-23:07:06.661|56=FIX_SERVER|11=$A$2_0626200706646_0000000001|38=10000|40=2|44=9.84|54=1|55=NTFN25|60=20240626-20:07:06.653|10=129|
8=FIX.4.4|9=161|35=8|34=3|49=FIX_SERVER|52=20240626-23:07:06.816|56=CLIENTE_EXCEL|6=9.84|11=$A$2_0626200706646_0000000001|14=10000|17=54321|37=9|39=0|54=1|55=NTFN25|150=0|151=0|10=254|
8=FIX.4.4|9=66|35=0|34=4|49=CLIENTE_EXCEL|52=20240626-23:07:37.119|56=FIX_SERVER|10=211|
8=FIX.4.4|9=66|35=0|34=4|49=FIX_SERVER|52=20240626-23:07:37.120|56=CLIENTE_EXCEL|10=203|
8=FIX.4.4|9=210|35=G|34=5|49=CLIENTE_EXCEL|52=20240626-23:07:45.929|56=FIX_SERVER|11=$A$2_0626200745924_0000000001|38=10000|40=2|41=$A$2_0626200706646_0000000001|44=9.84|48=NTFN25|54=1|55=NTFN25|60=20240626-23:07:45.927|423=2|10=129|
8=FIX.4.4|9=161|35=8|34=5|49=FIX_SERVER|52=20240626-23:07:45.944|56=CLIENTE_EXCEL|6=9.84|11=$A$2_0626200745924_0000000001|14=10000|17=54321|37=3|39=0|54=1|55=NTFN25|150=0|151=0|10=001|
8=FIX.4.4|9=66|35=0|34=6|49=CLIENTE_EXCEL|52=20240626-23:08:16.266|56=FIX_SERVER|10=214|
8=FIX.4.4|9=66|35=0|34=6|49=FIX_SERVER|52=20240626-23:08:16.268|56=CLIENTE_EXCEL|10=216|
8=FIX.4.4|9=66|35=0|34=7|49=CLIENTE_EXCEL|52=20240626-23:08:46.544|56=FIX_SERVER|10=217|
8=FIX.4.4|9=66|35=0|34=7|49=FIX_SERVER|52=20240626-23:08:46.546|56=CLIENTE_EXCEL|10=219|
8=FIX.4.4|9=66|35=0|34=8|49=FIX_SERVER|52=20240626-23:09:16.642|56=CLIENTE_EXCEL|10=215|
8=FIX.4.4|9=66|35=0|34=8|49=CLIENTE_EXCEL|52=20240626-23:09:16.718|56=FIX_SERVER|10=219|
8=FIX.4.4|9=210|35=G|34=9|49=CLIENTE_EXCEL|52=20240626-23:09:31.584|56=FIX_SERVER|11=$A$2_0626200931584_0000000001|38=10000|40=2|41=$A$2_0626200706646_0000000001|44=5.84|48=NTFN25|54=1|55=NTFN25|60=20240626-23:09:31.584|423=2|10=118|
8=FIX.4.4|9=161|35=8|34=9|49=FIX_SERVER|52=20240626-23:09:31.593|56=CLIENTE_EXCEL|6=5.84|11=$A$2_0626200931584_0000000001|14=10000|17=54321|37=6|39=0|54=1|55=NTFN25|150=0|151=0|10=000|
8=FIX.4.4|9=67|35=0|34=10|49=FIX_SERVER|52=20240626-23:10:01.653|56=CLIENTE_EXCEL|10=245|
8=FIX.4.4|9=67|35=0|34=10|49=CLIENTE_EXCEL|52=20240626-23:10:01.691|56=FIX_SERVER|10=247|
8=FIX.4.4|9=212|35=G|34=11|49=CLIENTE_EXCEL|52=20240626-23:10:29.718|56=FIX_SERVER|11=$A$2_0626201029718_0000000001|38=10000|40=2|41=$A$2_0626200706646_0000000001|44=10.84|48=NTFN25|54=1|55=NTFN25|60=20240626-23:10:29.718|423=2|10=199|
8=FIX.4.4|9=163|35=8|34=11|49=FIX_SERVER|52=20240626-23:10:29.724|56=CLIENTE_EXCEL|6=10.84|11=$A$2_0626201029718_0000000001|14=10000|17=54321|37=7|39=0|54=1|55=NTFN25|150=0|151=0|10=081|
8=FIX.4.4|9=67|35=0|34=12|49=CLIENTE_EXCEL|52=20240626-23:11:00.038|56=FIX_SERVER|10=244|
8=FIX.4.4|9=67|35=0|34=12|49=FIX_SERVER|52=20240626-23:11:00.040|56=CLIENTE_EXCEL|10=237|
8=FIX.4.4|9=67|35=0|34=13|49=CLIENTE_EXCEL|52=20240626-23:11:30.359|56=FIX_SERVER|10=254|
8=FIX.4.4|9=67|35=0|34=13|49=FIX_SERVER|52=20240626-23:11:30.363|56=CLIENTE_EXCEL|10=249|
8=FIX.4.4|9=67|35=0|34=14|49=CLIENTE_EXCEL|52=20240626-23:12:00.652|56=FIX_SERVER|10=249|
8=FIX.4.4|9=67|35=0|34=14|49=FIX_SERVER|52=20240626-23:12:00.652|56=CLIENTE_EXCEL|10=249|
8=FIX.4.4|9=67|35=0|34=15|49=FIX_SERVER|52=20240626-23:12:30.655|56=CLIENTE_EXCEL|10=000|
8=FIX.4.4|9=67|35=0|34=15|49=CLIENTE_EXCEL|52=20240626-23:12:30.679|56=FIX_SERVER|10=006|
8=FIX.4.4|9=67|35=0|34=16|49=FIX_SERVER|52=20240626-23:13:00.655|56=CLIENTE_EXCEL|10=255|
8=FIX.4.4|9=67|35=0|34=16|49=CLIENTE_EXCEL|52=20240626-23:13:00.687|56=FIX_SERVER|10=004|
8=FIX.4.4|9=67|35=0|34=17|49=FIX_SERVER|52=20240626-23:13:30.653|56=CLIENTE_EXCEL|10=001|
8=FIX.4.4|9=67|35=0|34=17|49=CLIENTE_EXCEL|52=20240626-23:13:31.671|56=FIX_SERVER|10=002|
8=FIX.4.4|9=67|35=0|34=18|49=FIX_SERVER|52=20240626-23:14:00.660|56=CLIENTE_EXCEL|10=254|
8=FIX.4.4|9=67|35=0|34=18|49=CLIENTE_EXCEL|52=20240626-23:14:01.700|56=FIX_SERVER|10=250|
8=FIX.4.4|9=67|35=0|34=19|49=FIX_SERVER|52=20240626-23:14:30.659|56=CLIENTE_EXCEL|10=010|
8=FIX.4.4|9=67|35=0|34=19|49=CLIENTE_EXCEL|52=20240626-23:14:32.678|56=FIX_SERVER|10=013|
8=FIX.4.4|9=67|35=0|34=20|49=FIX_SERVER|52=20240626-23:15:01.650|56=CLIENTE_EXCEL|10=248|
8=FIX.4.4|9=67|35=0|34=20|49=CLIENTE_EXCEL|52=20240626-23:15:02.728|56=FIX_SERVER|10=255|
8=FIX.4.4|9=160|35=D|34=21|49=CLIENTE_EXCEL|52=20240626-23:15:06.004|56=FIX_SERVER|11=$A$3_0626201506004_0000000001|38=12|40=2|44=12.84|54=2|55=ALGA12|60=20240626-20:15:06.004|10=007|
8=FIX.4.4|9=160|35=8|34=21|49=FIX_SERVER|52=20240626-23:15:06.010|56=CLIENTE_EXCEL|6=12.84|11=$A$3_0626201506004_0000000001|14=12|17=54321|37=6|39=0|54=2|55=ALGA12|150=0|151=0|10=135|
8=FIX.4.4|9=67|35=0|34=22|49=CLIENTE_EXCEL|52=20240626-23:15:36.383|56=FIX_SERVER|10=005|
8=FIX.4.4|9=67|35=0|34=22|49=FIX_SERVER|52=20240626-23:15:36.388|56=CLIENTE_EXCEL|10=010|
8=FIX.4.4|9=209|35=G|34=23|49=CLIENTE_EXCEL|52=20240626-23:15:49.041|56=FIX_SERVER|11=$A$3_0626201549041_0000000001|38=12|40=2|41=$A$3_0626201506004_0000000001|44=52.84|48=ALGA12|54=2|55=ALGA12|60=20240626-23:15:49.041|423=2|10=232|
8=FIX.4.4|9=160|35=8|34=23|49=FIX_SERVER|52=20240626-23:15:49.068|56=CLIENTE_EXCEL|6=52.84|11=$A$3_0626201549041_0000000001|14=12|17=54321|37=9|39=0|54=2|55=ALGA12|150=0|151=0|10=172|
8=FIX.4.4|9=67|35=0|34=24|49=CLIENTE_EXCEL|52=20240626-23:16:19.401|56=FIX_SERVER|10=000|
8=FIX.4.4|9=67|35=0|34=24|49=FIX_SERVER|52=20240626-23:16:19.404|56=CLIENTE_EXCEL|10=003|
8=FIX.4.4|9=67|35=0|34=25|49=FIX_SERVER|52=20240626-23:16:49.652|56=CLIENTE_EXCEL|10=012|
8=FIX.4.4|9=67|35=0|34=25|49=CLIENTE_EXCEL|52=20240626-23:16:49.718|56=FIX_SERVER|10=015|
8=FIX.4.4|9=67|35=0|34=26|49=FIX_SERVER|52=20240626-23:17:19.664|56=CLIENTE_EXCEL|10=014|
8=FIX.4.4|9=67|35=0|34=26|49=CLIENTE_EXCEL|52=20240626-23:17:20.704|56=FIX_SERVER|10=001|
8=FIX.4.4|9=67|35=0|34=27|49=FIX_SERVER|52=20240626-23:17:50.658|56=CLIENTE_EXCEL|10=013|
8=FIX.4.4|9=67|35=0|34=27|49=CLIENTE_EXCEL|52=20240626-23:17:50.710|56=FIX_SERVER|10=002|
8=FIX.4.4|9=67|35=0|34=28|49=FIX_SERVER|52=20240626-23:18:20.655|56=CLIENTE_EXCEL|10=009|
8=FIX.4.4|9=67|35=0|34=28|49=CLIENTE_EXCEL|52=20240626-23:18:20.730|56=FIX_SERVER|10=003|
8=FIX.4.4|9=67|35=0|34=29|49=FIX_SERVER|52=20240626-23:18:50.657|56=CLIENTE_EXCEL|10=015|
8=FIX.4.4|9=67|35=0|34=29|49=CLIENTE_EXCEL|52=20240626-23:18:51.735|56=FIX_SERVER|10=013|
8=FIX.4.4|9=67|35=0|34=30|49=FIX_SERVER|52=20240626-23:19:20.657|56=CLIENTE_EXCEL|10=005|
8=FIX.4.4|9=67|35=0|34=30|49=CLIENTE_EXCEL|52=20240626-23:19:22.734|56=FIX_SERVER|10=003|
8=FIX.4.4|9=84|35=A|34=1|49=CLIENTE_EXCEL|52=20240626-23:41:31.090|56=FIX_SERVER|98=0|108=30|141=Y|10=029|
8=FIX.4.4|9=84|35=A|34=1|49=FIX_SERVER|52=20240626-23:41:31.211|56=CLIENTE_EXCEL|98=0|108=30|141=Y|10=024|
8=FIX.4.4|9=161|35=D|34=2|49=CLIENTE_EXCEL|52=20240626-23:41:47.442|56=FIX_SERVER|11=$A$2_0626204147423_0000000001|38=10000|40=2|44=9.84|54=1|55=NTFN25|60=20240626-20:41:47.432|10=122|
8=FIX.4.4|9=161|35=8|34=2|49=FIX_SERVER|52=20240626-23:41:47.552|56=CLIENTE_EXCEL|6=9.84|11=$A$2_0626204147423_0000000001|14=10000|17=54321|37=0|39=0|54=1|55=NTFN25|150=0|151=0|10=240|
8=FIX.4.4|9=66|35=0|34=3|49=FIX_SERVER|52=20240626-23:42:17.723|56=CLIENTE_EXCEL|10=208|
8=FIX.4.4|9=66|35=0|34=3|49=CLIENTE_EXCEL|52=20240626-23:42:17.766|56=FIX_SERVER|10=215|
8=FIX.4.4|9=211|35=G|34=4|49=CLIENTE_EXCEL|52=20240626-23:42:39.985|56=FIX_SERVER|11=$A$2_0626204239979_0000000001|38=10000|40=2|41=$A$2_0626204147423_0000000001|44=10.84|48=NTFN25|54=1|55=NTFN25|60=20240626-23:42:39.982|423=2|10=184|
8=FIX.4.4|9=162|35=8|34=4|49=FIX_SERVER|52=20240626-23:42:40.004|56=CLIENTE_EXCEL|6=10.84|11=$A$2_0626204239979_0000000001|14=10000|17=54321|37=5|39=0|54=1|55=NTFN25|150=0|151=0|10=036|
8=FIX.4.4|9=211|35=G|34=5|49=CLIENTE_EXCEL|52=20240626-23:42:57.133|56=FIX_SERVER|11=$A$2_0626204257133_0000000001|38=10000|40=2|41=$A$2_0626204147423_0000000001|44=17.84|48=NTFN25|54=1|55=NTFN25|60=20240626-23:42:57.133|423=2|10=147|
8=FIX.4.4|9=162|35=8|34=5|49=FIX_SERVER|52=20240626-23:42:57.140|56=CLIENTE_EXCEL|6=17.84|11=$A$2_0626204257133_0000000001|14=10000|17=54321|37=9|39=0|54=1|55=NTFN25|150=0|151=0|10=039|
8=FIX.4.4|9=211|35=G|34=6|49=CLIENTE_EXCEL|52=20240626-23:43:12.209|56=FIX_SERVER|11=$A$2_0626204312209_0000000001|38=10000|40=2|41=$A$2_0626204147423_0000000001|44=11.84|48=NTFN25|54=1|55=NTFN25|60=20240626-23:43:12.209|423=2|10=130|
8=FIX.4.4|9=162|35=8|34=6|49=FIX_SERVER|52=20240626-23:43:12.232|56=CLIENTE_EXCEL|6=11.84|11=$A$2_0626204312209_0000000001|14=10000|17=54321|37=0|39=0|54=1|55=NTFN25|150=0|151=0|10=015|
8=FIX.4.4|9=66|35=0|34=7|49=CLIENTE_EXCEL|52=20240626-23:43:42.555|56=FIX_SERVER|10=214|
8=FIX.4.4|9=66|35=0|34=7|49=FIX_SERVER|52=20240626-23:43:42.559|56=CLIENTE_EXCEL|10=218|
8=FIX.4.4|9=84|35=A|34=1|49=CLIENTE_EXCEL|52=20240627-00:05:00.119|56=FIX_SERVER|98=0|108=30|141=Y|10=023|
8=FIX.4.4|9=84|35=A|34=1|49=FIX_SERVER|52=20240627-00:05:00.241|56=CLIENTE_EXCEL|98=0|108=30|141=Y|10=019|
8=FIX.4.4|9=161|35=D|34=2|49=CLIENTE_EXCEL|52=20240627-00:05:11.750|56=FIX_SERVER|11=$A$2_0626210511737_0000000001|38=10000|40=2|44=9.84|54=1|55=NTFN25|60=20240626-21:05:11.745|10=110|
8=FIX.4.4|9=161|35=8|34=2|49=FIX_SERVER|52=20240627-00:05:11.853|56=CLIENTE_EXCEL|6=9.84|11=$A$2_0626210511737_0000000001|14=10000|17=54321|37=0|39=0|54=1|55=NTFN25|150=0|151=0|10=231|
8=FIX.4.4|9=66|35=0|34=3|49=FIX_SERVER|52=20240627-00:05:42.669|56=CLIENTE_EXCEL|10=210|
8=FIX.4.4|9=75|35=1|34=4|49=FIX_SERVER|52=20240627-00:05:57.670|56=CLIENTE_EXCEL|112=TEST|10=228|
8=FIX.4.4|9=84|35=A|34=1|49=CLIENTE_EXCEL|52=20240627-00:09:04.901|56=FIX_SERVER|98=0|108=30|141=Y|10=030|
8=FIX.4.4|9=84|35=A|34=1|49=FIX_SERVER|52=20240627-00:09:05.035|56=CLIENTE_EXCEL|98=0|108=30|141=Y|10=029|
8=FIX.4.4|9=161|35=D|34=2|49=CLIENTE_EXCEL|52=20240627-00:09:15.033|56=FIX_SERVER|11=$A$2_0626210915022_0000000001|38=10000|40=2|44=9.84|54=1|55=NTFN25|60=20240626-21:09:15.028|10=109|
8=FIX.4.4|9=161|35=8|34=2|49=FIX_SERVER|52=20240627-00:09:15.204|56=CLIENTE_EXCEL|6=9.84|11=$A$2_0626210915022_0000000001|14=10000|17=54321|37=6|39=0|54=1|55=NTFN25|150=0|151=0|10=230|
8=FIX.4.4|9=211|35=G|34=3|49=CLIENTE_EXCEL|52=20240627-00:09:37.053|56=FIX_SERVER|11=$A$2_0626210937048_0000000001|38=10000|40=2|41=$A$2_0626210915022_0000000001|44=19.84|48=NTFN25|54=1|55=NTFN25|60=20240627-00:09:37.051|423=2|10=143|
8=FIX.4.4|9=66|35=0|34=3|49=FIX_SERVER|52=20240627-00:09:45.590|56=CLIENTE_EXCEL|10=210|
8=FIX.4.4|9=66|35=0|34=4|49=CLIENTE_EXCEL|52=20240627-00:10:07.794|56=FIX_SERVER|10=207|
8=FIX.4.4|9=84|35=A|34=1|49=CLIENTE_EXCEL|52=20240627-00:18:02.064|56=FIX_SERVER|98=0|108=30|141=Y|10=028|
8=FIX.4.4|9=84|35=A|34=1|49=FIX_SERVER|52=20240627-00:18:02.227|56=CLIENTE_EXCEL|98=0|108=30|141=Y|10=029|
8=FIX.4.4|9=161|35=D|34=2|49=CLIENTE_EXCEL|52=20240627-00:18:12.153|56=FIX_SERVER|11=$A$2_0626211812131_0000000001|38=10000|40=2|44=9.84|54=1|55=NTFN25|60=20240626-21:18:12.139|10=107|
8=FIX.4.4|9=66|35=0|34=2|49=FIX_SERVER|52=20240627-00:18:32.275|56=CLIENTE_EXCEL|10=205|
8=FIX.4.4|9=66|35=0|34=3|49=CLIENTE_EXCEL|52=20240627-00:18:42.387|56=FIX_SERVER|10=211|
8=FIX.4.4|9=75|35=1|34=3|49=FIX_SERVER|52=20240627-00:18:57.276|56=CLIENTE_EXCEL|112=TEST|10=233|
8=FIX.4.4|9=75|35=0|34=4|49=CLIENTE_EXCEL|52=20240627-00:18:57.300|56=FIX_SERVER|112=TEST|10=221|
8=FIX.4.4|9=84|35=A|34=1|49=CLIENTE_EXCEL|52=20240627-00:27:08.033|56=FIX_SERVER|98=0|108=30|141=Y|10=030|
8=FIX.4.4|9=84|35=A|34=1|49=FIX_SERVER|52=20240627-00:27:08.182|56=CLIENTE_EXCEL|98=0|108=30|141=Y|10=035|
8=FIX.4.4|9=160|35=D|34=2|49=CLIENTE_EXCEL|52=20240627-00:27:16.865|56=FIX_SERVER|11=$A$2_062621271685_0000000001|38=10000|40=2|44=9.84|54=1|55=NTFN25|60=20240626-21:27:16.855|10=093|
8=FIX.4.4|9=169|35=8|34=2|49=FIX_SERVER|52=20240627-00:27:34.680|56=CLIENTE_EXCEL|6=9.84|11=$A$2_062621271685_0000000001|14=10000|17=54321|37=1378577387|39=0|54=1|55=NTFN25|150=0|151=0|10=179|
8=FIX.4.4|9=75|35=1|34=3|49=FIX_SERVER|52=20240627-00:28:02.358|56=CLIENTE_EXCEL|112=TEST|10=225|
8=FIX.4.4|9=66|35=0|34=3|49=CLIENTE_EXCEL|52=20240627-00:28:03.091|56=FIX_SERVER|10=201|
8=FIX.4.4|9=75|35=0|34=4|49=CLIENTE_EXCEL|52=20240627-00:28:03.128|56=FIX_SERVER|112=TEST|10=221|
8=FIX.4.4|9=66|35=0|34=4|49=FIX_SERVER|52=20240627-00:28:32.369|56=CLIENTE_EXCEL|10=212|
8=FIX.4.4|9=66|35=0|34=5|49=CLIENTE_EXCEL|52=20240627-00:28:33.428|56=FIX_SERVER|10=210|
8=FIX.4.4|9=209|35=G|34=6|49=CLIENTE_EXCEL|52=20240627-00:28:46.724|56=FIX_SERVER|11=$A$2_0626212846718_0000000001|38=10000|40=2|41=$A$2_062621271685_0000000001|44=6.84|48=NTFN25|54=1|55=NTFN25|60=20240627-00:28:46.722|423=2|10=080|
8=FIX.4.4|9=66|35=0|34=5|49=FIX_SERVER|52=20240627-00:29:02.364|56=CLIENTE_EXCEL|10=206|
8=FIX.4.4|9=66|35=0|34=7|49=CLIENTE_EXCEL|52=20240627-00:29:17.522|56=FIX_SERVER|10=210|
8=FIX.4.4|9=66|35=0|34=6|49=FIX_SERVER|52=20240627-00:29:32.367|56=CLIENTE_EXCEL|10=213|
8=FIX.4.4|9=66|35=0|34=8|49=CLIENTE_EXCEL|52=20240627-00:29:47.536|56=FIX_SERVER|10=219|
8=FIX.4.4|9=66|35=0|34=7|49=FIX_SERVER|52=20240627-00:30:02.372|56=CLIENTE_EXCEL|10=199|
8=FIX.4.4|9=66|35=0|34=9|49=CLIENTE_EXCEL|52=20240627-00:30:18.544|56=FIX_SERVER|10=209|
8=FIX.4.4|9=84|35=A|34=1|49=CLIENTE_EXCEL|52=20240627-00:33:22.128|56=FIX_SERVER|98=0|108=30|141=Y|10=028|
8=FIX.4.4|9=84|35=A|34=1|49=FIX_SERVER|52=20240627-00:33:22.294|56=CLIENTE_EXCEL|98=0|108=30|141=Y|10=032|
8=FIX.4.4|9=161|35=D|34=2|49=CLIENTE_EXCEL|52=20240627-00:33:37.715|56=FIX_SERVER|11=$A$2_0626213337693_0000000001|38=10000|40=2|44=9.84|54=1|55=NTFN25|60=20240626-21:33:37.701|10=131|
8=FIX.4.4|9=170|35=8|34=2|49=FIX_SERVER|52=20240627-00:33:37.853|56=CLIENTE_EXCEL|6=9.84|11=$A$2_0626213337693_0000000001|14=10000|17=54321|37=8842446926|39=0|54=1|55=NTFN25|150=0|151=0|10=223|
8=FIX.4.4|9=84|35=A|34=1|49=CLIENTE_EXCEL|52=20240627-00:35:49.366|56=FIX_SERVER|98=0|108=30|141=Y|10=043|
8=FIX.4.4|9=84|35=A|34=1|49=FIX_SERVER|52=20240627-00:35:49.442|56=CLIENTE_EXCEL|98=0|108=30|141=Y|10=038|
8=FIX.4.4|9=161|35=D|34=2|49=CLIENTE_EXCEL|52=20240627-00:36:01.529|56=FIX_SERVER|11=$A$2_0626213601514_0000000001|38=10000|40=2|44=9.84|54=1|55=NTFN25|60=20240626-21:36:01.521|10=108|
8=FIX.4.4|9=170|35=8|34=2|49=FIX_SERVER|52=20240627-00:36:01.533|56=CLIENTE_EXCEL|6=9.84|11=$A$2_0626213601514_0000000001|14=10000|17=54321|37=1346195000|39=0|54=1|55=NTFN25|150=0|151=0|10=174|
8=FIX.4.4|9=66|35=0|34=3|49=FIX_SERVER|52=20240627-00:36:32.151|56=CLIENTE_EXCEL|10=199|
8=FIX.4.4|9=66|35=0|34=3|49=CLIENTE_EXCEL|52=20240627-00:36:32.210|56=FIX_SERVER|10=195|
8=FIX.4.4|9=66|35=0|34=4|49=FIX_SERVER|52=20240627-00:37:02.142|56=CLIENTE_EXCEL|10=198|
8=FIX.4.4|9=66|35=0|34=4|49=CLIENTE_EXCEL|52=20240627-00:37:03.184|56=FIX_SERVER|10=205|
8=FIX.4.4|9=66|35=0|34=5|49=FIX_SERVER|52=20240627-00:37:32.142|56=CLIENTE_EXCEL|10=202|
8=FIX.4.4|9=75|35=1|34=6|49=FIX_SERVER|52=20240627-00:37:49.147|56=CLIENTE_EXCEL|112=TEST|10=235|
8=FIX.4.4|9=75|35=1|34=5|49=CLIENTE_EXCEL|52=20240627-00:37:54.511|56=FIX_SERVER|112=TEST|10=225|
8=FIX.4.4|9=75|35=0|34=7|49=FIX_SERVER|52=20240627-00:37:54.515|56=CLIENTE_EXCEL|112=TEST|10=230|
8=FIX.4.4|9=66|35=0|34=8|49=FIX_SERVER|52=20240627-00:38:25.150|56=CLIENTE_EXCEL|10=207|
8=FIX.4.4|9=75|35=1|34=9|49=FIX_SERVER|52=20240627-00:38:40.152|56=CLIENTE_EXCEL|112=TEST|10=226|
